{
  "contractName": "SimpleAuction",
  "abi": [
    {
      "inputs": [
        {
          "internalType": "uint256",
          "name": "biddingTime",
          "type": "uint256"
        },
        {
          "internalType": "address payable",
          "name": "beneficiaryAddress",
          "type": "address"
        }
      ],
      "stateMutability": "nonpayable",
      "type": "constructor"
    },
    {
      "inputs": [],
      "name": "AuctionAlreadyEnded",
      "type": "error"
    },
    {
      "inputs": [],
      "name": "AuctionEndAlreadyCalled",
      "type": "error"
    },
    {
      "inputs": [],
      "name": "AuctionNotYetEnded",
      "type": "error"
    },
    {
      "inputs": [
        {
          "internalType": "uint256",
          "name": "highestBid",
          "type": "uint256"
        }
      ],
      "name": "BidNotHighEnough",
      "type": "error"
    },
    {
      "anonymous": false,
      "inputs": [
        {
          "indexed": false,
          "internalType": "address",
          "name": "winner",
          "type": "address"
        },
        {
          "indexed": false,
          "internalType": "uint256",
          "name": "amount",
          "type": "uint256"
        }
      ],
      "name": "AuctionEnded",
      "type": "event"
    },
    {
      "anonymous": false,
      "inputs": [
        {
          "indexed": false,
          "internalType": "address",
          "name": "bidder",
          "type": "address"
        },
        {
          "indexed": false,
          "internalType": "uint256",
          "name": "amount",
          "type": "uint256"
        }
      ],
      "name": "HightestBidIncreased",
      "type": "event"
    },
    {
      "inputs": [],
      "name": "auctionEndTime",
      "outputs": [
        {
          "internalType": "uint256",
          "name": "",
          "type": "uint256"
        }
      ],
      "stateMutability": "view",
      "type": "function",
      "constant": true
    },
    {
      "inputs": [],
      "name": "beneficiary",
      "outputs": [
        {
          "internalType": "address payable",
          "name": "",
          "type": "address"
        }
      ],
      "stateMutability": "view",
      "type": "function",
      "constant": true
    },
    {
      "inputs": [],
      "name": "highestBid",
      "outputs": [
        {
          "internalType": "uint256",
          "name": "",
          "type": "uint256"
        }
      ],
      "stateMutability": "view",
      "type": "function",
      "constant": true
    },
    {
      "inputs": [],
      "name": "highestBidder",
      "outputs": [
        {
          "internalType": "address",
          "name": "",
          "type": "address"
        }
      ],
      "stateMutability": "view",
      "type": "function",
      "constant": true
    },
    {
      "inputs": [],
      "name": "bid",
      "outputs": [],
      "stateMutability": "payable",
      "type": "function",
      "payable": true
    },
    {
      "inputs": [],
      "name": "withdraw",
      "outputs": [
        {
          "internalType": "bool",
          "name": "",
          "type": "bool"
        }
      ],
      "stateMutability": "nonpayable",
      "type": "function"
    },
    {
      "inputs": [],
      "name": "auctionEnd",
      "outputs": [],
      "stateMutability": "nonpayable",
      "type": "function"
    }
  ],
  "bytecode": "0x608060405234801561001057600080fd5b5060405161097e38038061097e83398181016040528101906100329190610124565b806000806101000a81548173ffffffffffffffffffffffffffffffffffffffff021916908373ffffffffffffffffffffffffffffffffffffffff160217905550814261007e9190610193565b60018190555050506101e9565b600080fd5b6000819050919050565b6100a381610090565b81146100ae57600080fd5b50565b6000815190506100c08161009a565b92915050565b600073ffffffffffffffffffffffffffffffffffffffff82169050919050565b60006100f1826100c6565b9050919050565b610101816100e6565b811461010c57600080fd5b50565b60008151905061011e816100f8565b92915050565b6000806040838503121561013b5761013a61008b565b5b6000610149858286016100b1565b925050602061015a8582860161010f565b9150509250929050565b7f4e487b7100000000000000000000000000000000000000000000000000000000600052601160045260246000fd5b600061019e82610090565b91506101a983610090565b9250827fffffffffffffffffffffffffffffffffffffffffffffffffffffffffffffffff038211156101de576101dd610164565b5b828201905092915050565b610786806101f86000396000f3fe6080604052600436106100705760003560e01c80633ccfd60b1161004e5780633ccfd60b146100c15780634b449cba146100ec57806391f9015714610117578063d57bde791461014257610070565b80631998aeef146100755780632a24f46c1461007f57806338af3eed14610096575b600080fd5b61007d61016d565b005b34801561008b57600080fd5b506100946102c0565b005b3480156100a257600080fd5b506100ab610426565b6040516100b891906105e1565b60405180910390f35b3480156100cd57600080fd5b506100d661044a565b6040516100e39190610617565b60405180910390f35b3480156100f857600080fd5b5061010161056e565b60405161010e919061064b565b60405180910390f35b34801561012357600080fd5b5061012c610574565b6040516101399190610687565b60405180910390f35b34801561014e57600080fd5b5061015761059a565b604051610164919061064b565b60405180910390f35b6001544211156101a9576040517fd02e774d00000000000000000000000000000000000000000000000000000000815260040160405180910390fd5b60035434116101f1576003546040517f4e12c1bb0000000000000000000000000000000000000000000000000000000081526004016101e8919061064b565b60405180910390fd5b6000600354146102765760035460046000600260009054906101000a900473ffffffffffffffffffffffffffffffffffffffff1673ffffffffffffffffffffffffffffffffffffffff1673ffffffffffffffffffffffffffffffffffffffff168152602001908152602001600020600082825461026e91906106d1565b925050819055505b33600260006101000a81548173ffffffffffffffffffffffffffffffffffffffff021916908373ffffffffffffffffffffffffffffffffffffffff16021790555034600381905550565b6001544210156102fc576040517f44cee29000000000000000000000000000000000000000000000000000000000815260040160405180910390fd5b600560009054906101000a900460ff1615610343576040517f61cfdcf800000000000000000000000000000000000000000000000000000000815260040160405180910390fd5b6001600560006101000a81548160ff0219169083151502179055507fdaec4582d5d9595688c8c98545fdd1c696d41c6aeaeb636737e84ed2f5c00eda600260009054906101000a900473ffffffffffffffffffffffffffffffffffffffff166003546040516103b3929190610727565b60405180910390a160008054906101000a900473ffffffffffffffffffffffffffffffffffffffff1673ffffffffffffffffffffffffffffffffffffffff166108fc6003549081150290604051600060405180830381858888f19350505050158015610423573d6000803e3d6000fd5b50565b60008054906101000a900473ffffffffffffffffffffffffffffffffffffffff1681565b600080600460003373ffffffffffffffffffffffffffffffffffffffff1673ffffffffffffffffffffffffffffffffffffffff1681526020019081526020016000205490506000811115610565576000600460003373ffffffffffffffffffffffffffffffffffffffff1673ffffffffffffffffffffffffffffffffffffffff168152602001908152602001600020819055503373ffffffffffffffffffffffffffffffffffffffff166108fc829081150290604051600060405180830381858888f193505050506105645780600460003373ffffffffffffffffffffffffffffffffffffffff1673ffffffffffffffffffffffffffffffffffffffff16815260200190815260200160002081905550600091505061056b565b5b60019150505b90565b60015481565b600260009054906101000a900473ffffffffffffffffffffffffffffffffffffffff1681565b60035481565b600073ffffffffffffffffffffffffffffffffffffffff82169050919050565b60006105cb826105a0565b9050919050565b6105db816105c0565b82525050565b60006020820190506105f660008301846105d2565b92915050565b60008115159050919050565b610611816105fc565b82525050565b600060208201905061062c6000830184610608565b92915050565b6000819050919050565b61064581610632565b82525050565b6000602082019050610660600083018461063c565b92915050565b6000610671826105a0565b9050919050565b61068181610666565b82525050565b600060208201905061069c6000830184610678565b92915050565b7f4e487b7100000000000000000000000000000000000000000000000000000000600052601160045260246000fd5b60006106dc82610632565b91506106e783610632565b9250827fffffffffffffffffffffffffffffffffffffffffffffffffffffffffffffffff0382111561071c5761071b6106a2565b5b828201905092915050565b600060408201905061073c6000830185610678565b610749602083018461063c565b939250505056fea26469706673582212207139cf2882d01c32b92957a557b09118030c0ed1cfb2dbd245337264f2e0b60764736f6c634300080d0033",
  "immutableReferences": {},
  "source": "//SPDX-License-Indentifier: GPL-3.0\r\npragma solidity ^0.8.4;\r\ncontract SimpleAuction {\r\n    address payable public beneficiary;\r\n    uint public auctionEndTime;\r\n\r\n    address public highestBidder;\r\n    uint public highestBid;\r\n\r\n    mapping(address => uint) pendingReturns;\r\n\r\n    bool ended;\r\n\r\n    event HightestBidIncreased(address bidder, uint amount);\r\n    event AuctionEnded(address winner, uint amount);\r\n\r\n    error AuctionAlreadyEnded();\r\n    error BidNotHighEnough(uint highestBid);\r\n    error AuctionNotYetEnded();\r\n    error AuctionEndAlreadyCalled();\r\n\r\n    constructor(\r\n        uint biddingTime, \r\n        address payable beneficiaryAddress\r\n    ) {\r\n        beneficiary = beneficiaryAddress;\r\n        auctionEndTime = block.timestamp + biddingTime;\r\n    }\r\n\r\n    function bid() external payable {\r\n\r\n        if (block.timestamp > auctionEndTime)\r\n        revert AuctionAlreadyEnded();\r\n        if(msg.value <= highestBid)\r\n        revert BidNotHighEnough(highestBid);\r\n\r\n        if(highestBid != 0) {\r\n            pendingReturns[highestBidder] += highestBid;\r\n        }\r\n        highestBidder = msg.sender;\r\n        highestBid = msg.value;\r\n    }\r\n\r\n    function withdraw() external returns (bool) {\r\n        uint amount = pendingReturns[msg.sender];\r\n        if (amount > 0) {\r\n            pendingReturns[msg.sender] = 0;\r\n\r\n            if(!payable(msg.sender).send(amount)) {\r\n                pendingReturns[msg.sender] = amount;\r\n                return false;\r\n            }\r\n        }\r\n        return true;\r\n    }\r\n\r\n    function auctionEnd() external {\r\n        if (block.timestamp < auctionEndTime)\r\n            revert AuctionNotYetEnded();\r\n        if (ended)\r\n            revert AuctionEndAlreadyCalled();\r\n\r\n        ended = true;\r\n        emit AuctionEnded(highestBidder, highestBid);\r\n\r\n        beneficiary.transfer(highestBid);\r\n    }\r\n}",
  "sourcePath": "D:\\Work\\blockchain\\firstProject\\contracts\\SimpleAuction.sol",
  "compiler": {
    "name": "solc",
    "version": "0.8.13+commit.abaa5c0e.Emscripten.clang"
  },
  "schemaVersion": "3.4.16",
  "updatedAt": "2024-01-27T09:14:43.643Z",
  "networkType": "ethereum",
  "devdoc": {
    "kind": "dev",
    "methods": {},
    "version": 1
  },
  "userdoc": {
    "kind": "user",
    "methods": {},
    "version": 1
  }
}